S00C0000554152542E73726563DC
S11300000C9434000C9451000C9451000C94510045
S11300100C9451000C9451000C9451000C94510018
S11300200C9451000C9451000C9451000C94510008
S11300300C9451000C9451000C9451000C945100F8
S11300400C9451000C9451000C94A8000C94510091
S11300500C9451000C9451000C9451000C945100D8
S11300600C9451000C94510011241FBECFEFD8E022
S1130070DEBFCDBF11E0A0E0B1E0E4EAF1E002C0F0
S113008005900D92A030B107D9F721E0A0E0B1E0CE
S113009001C01D92A338B207E1F70E947F000C94BF
S11300A0D0000C9400001092C50087E68093C40031
S11300B0E2ECF0E080818F738083808186608083AE
S11300C08081877F8083E1ECF0E088E18083808118
S11300D08068808308959091C00095FFFCCF809341
S11300E0C6000895CF93DF93EC018881882321F023
S11300F00E946B002196F9CFDF91CF9108957894F7
S11301000E9453008091810190918201892BC9F052
S1130110E0918001F0E0E150FF4F80818A3089F462
S113012080E091E00E94720010928201109281019D
S11301301092800180E8E0E0F1E0DF011D928A95F1
S1130140E9F78FE39CE90197F1F700C00000DACFEB
S11301501F920F920FB60F9211248F939F93EF93D8
S1130160FF9381E090E090938201809381018091DC
S11301708001E82FF0E09091C600E050FF4F90839B
S11301808F5F80938001813810F010928001FF917D
S1130190EF919F918F910F900FBE0F901F90189524
S10701A0F894FFCFFD
S9030000FC
